{
    "_format": "hh-sol-artifact-1",
    "contractName": "BuyMeACoffee",
    "sourceName": "contracts/BuyMeACoffee.sol",
    "abi": [
        {
            "inputs": [],
            "stateMutability": "nonpayable",
            "type": "constructor"
        },
        {
            "anonymous": false,
            "inputs": [
                {
                    "indexed": true,
                    "internalType": "address",
                    "name": "_sender",
                    "type": "address"
                },
                {
                    "indexed": false,
                    "internalType": "string",
                    "name": "name",
                    "type": "string"
                },
                {
                    "indexed": false,
                    "internalType": "string",
                    "name": "_message",
                    "type": "string"
                },
                {
                    "indexed": false,
                    "internalType": "uint256",
                    "name": "_timestamp",
                    "type": "uint256"
                }
            ],
            "name": "NewCoffee",
            "type": "event"
        },
        {
            "inputs": [
                {
                    "internalType": "string",
                    "name": "name",
                    "type": "string"
                },
                {
                    "internalType": "string",
                    "name": "message",
                    "type": "string"
                }
            ],
            "name": "buyCoffee",
            "outputs": [],
            "stateMutability": "payable",
            "type": "function"
        },
        {
            "inputs": [],
            "name": "coffeeId",
            "outputs": [
                {
                    "internalType": "uint256",
                    "name": "",
                    "type": "uint256"
                }
            ],
            "stateMutability": "view",
            "type": "function"
        },
        {
            "inputs": [
                {
                    "internalType": "uint256",
                    "name": "_id",
                    "type": "uint256"
                }
            ],
            "name": "getAllCoffee",
            "outputs": [
                {
                    "components": [
                        {
                            "internalType": "address",
                            "name": "sender",
                            "type": "address"
                        },
                        {
                            "internalType": "string",
                            "name": "name",
                            "type": "string"
                        },
                        {
                            "internalType": "uint256",
                            "name": "timestamp",
                            "type": "uint256"
                        },
                        {
                            "internalType": "string",
                            "name": "message",
                            "type": "string"
                        }
                    ],
                    "internalType": "struct BuyMeACoffee.BuyCoffee[]",
                    "name": "c",
                    "type": "tuple[]"
                }
            ],
            "stateMutability": "view",
            "type": "function"
        },
        {
            "inputs": [],
            "name": "withdrawCoffeTips",
            "outputs": [],
            "stateMutability": "nonpayable",
            "type": "function"
        }
    ],
    "bytecode": "0x608060405234801561001057600080fd5b50336000806101000a81548173ffffffffffffffffffffffffffffffffffffffff021916908373ffffffffffffffffffffffffffffffffffffffff160217905550611016806100606000396000f3fe60806040526004361061003f5760003560e01c806314e1e05514610044578063204206e11461006f578063b84722ee1461008b578063f8cd4b07146100a2575b600080fd5b34801561005057600080fd5b506100596100df565b60405161006691906105f2565b60405180910390f35b61008960048036038101906100849190610767565b6100e5565b005b34801561009757600080fd5b506100a0610220565b005b3480156100ae57600080fd5b506100c960048036038101906100c4919061080b565b61030e565b6040516100d69190610a33565b60405180910390f35b60025481565b60003411610128576040517f08c379a000000000000000000000000000000000000000000000000000000000815260040161011f90610ab2565b60405180910390fd5b6002600081548092919061013b90610b01565b9190505550600060016000600254815260200190815260200160002090508181600301908161016a9190610d55565b508281600101908161017c9190610d55565b50338160000160006101000a81548173ffffffffffffffffffffffffffffffffffffffff021916908373ffffffffffffffffffffffffffffffffffffffff1602179055504281600201819055503373ffffffffffffffffffffffffffffffffffffffff167facaf0a2f282f13a941c6f4f59a57886dbe6ed32ab15976fa2e7f5a04170fdaaf84844260405161021393929190610e60565b60405180910390a2505050565b3373ffffffffffffffffffffffffffffffffffffffff1660008054906101000a900473ffffffffffffffffffffffffffffffffffffffff1673ffffffffffffffffffffffffffffffffffffffff16146102ae576040517f08c379a00000000000000000000000000000000000000000000000000000000081526004016102a590610ef1565b60405180910390fd5b60008054906101000a900473ffffffffffffffffffffffffffffffffffffffff1673ffffffffffffffffffffffffffffffffffffffff166108fc479081150290604051600060405180830381858888f1935050505061030c57600080fd5b565b6060600254821115610355576040517f08c379a000000000000000000000000000000000000000000000000000000000815260040161034c90610f5d565b60405180910390fd5b8167ffffffffffffffff81111561036f5761036e61063c565b5b6040519080825280602002602001820160405280156103a857816020015b61039561059b565b81526020019060019003908161038d5790505b50905060005b8281101561059557600160006001836103c79190610f7d565b81526020019081526020016000206040518060800160405290816000820160009054906101000a900473ffffffffffffffffffffffffffffffffffffffff1673ffffffffffffffffffffffffffffffffffffffff1673ffffffffffffffffffffffffffffffffffffffff16815260200160018201805461044690610b78565b80601f016020809104026020016040519081016040528092919081815260200182805461047290610b78565b80156104bf5780601f10610494576101008083540402835291602001916104bf565b820191906000526020600020905b8154815290600101906020018083116104a257829003601f168201915b50505050508152602001600282015481526020016003820180546104e290610b78565b80601f016020809104026020016040519081016040528092919081815260200182805461050e90610b78565b801561055b5780601f106105305761010080835404028352916020019161055b565b820191906000526020600020905b81548152906001019060200180831161053e57829003601f168201915b50505050508152505082828151811061057757610576610fb1565b5b6020026020010181905250808061058d90610b01565b9150506103ae565b50919050565b6040518060800160405280600073ffffffffffffffffffffffffffffffffffffffff1681526020016060815260200160008152602001606081525090565b6000819050919050565b6105ec816105d9565b82525050565b600060208201905061060760008301846105e3565b92915050565b6000604051905090565b600080fd5b600080fd5b600080fd5b600080fd5b6000601f19601f8301169050919050565b7f4e487b7100000000000000000000000000000000000000000000000000000000600052604160045260246000fd5b6106748261062b565b810181811067ffffffffffffffff821117156106935761069261063c565b5b80604052505050565b60006106a661060d565b90506106b2828261066b565b919050565b600067ffffffffffffffff8211156106d2576106d161063c565b5b6106db8261062b565b9050602081019050919050565b82818337600083830152505050565b600061070a610705846106b7565b61069c565b90508281526020810184848401111561072657610725610626565b5b6107318482856106e8565b509392505050565b600082601f83011261074e5761074d610621565b5b813561075e8482602086016106f7565b91505092915050565b6000806040838503121561077e5761077d610617565b5b600083013567ffffffffffffffff81111561079c5761079b61061c565b5b6107a885828601610739565b925050602083013567ffffffffffffffff8111156107c9576107c861061c565b5b6107d585828601610739565b9150509250929050565b6107e8816105d9565b81146107f357600080fd5b50565b600081359050610805816107df565b92915050565b60006020828403121561082157610820610617565b5b600061082f848285016107f6565b91505092915050565b600081519050919050565b600082825260208201905092915050565b6000819050602082019050919050565b600073ffffffffffffffffffffffffffffffffffffffff82169050919050565b600061088f82610864565b9050919050565b61089f81610884565b82525050565b600081519050919050565b600082825260208201905092915050565b60005b838110156108df5780820151818401526020810190506108c4565b60008484015250505050565b60006108f6826108a5565b61090081856108b0565b93506109108185602086016108c1565b6109198161062b565b840191505092915050565b61092d816105d9565b82525050565b600060808301600083015161094b6000860182610896565b506020830151848203602086015261096382826108eb565b91505060408301516109786040860182610924565b506060830151848203606086015261099082826108eb565b9150508091505092915050565b60006109a98383610933565b905092915050565b6000602082019050919050565b60006109c982610838565b6109d38185610843565b9350836020820285016109e585610854565b8060005b85811015610a215784840389528151610a02858261099d565b9450610a0d836109b1565b925060208a019950506001810190506109e9565b50829750879550505050505092915050565b60006020820190508181036000830152610a4d81846109be565b905092915050565b600082825260208201905092915050565b7f546970206d7573742062652067726561746572207468616e207a65726f000000600082015250565b6000610a9c601d83610a55565b9150610aa782610a66565b602082019050919050565b60006020820190508181036000830152610acb81610a8f565b9050919050565b7f4e487b7100000000000000000000000000000000000000000000000000000000600052601160045260246000fd5b6000610b0c826105d9565b91507fffffffffffffffffffffffffffffffffffffffffffffffffffffffffffffffff8203610b3e57610b3d610ad2565b5b600182019050919050565b7f4e487b7100000000000000000000000000000000000000000000000000000000600052602260045260246000fd5b60006002820490506001821680610b9057607f821691505b602082108103610ba357610ba2610b49565b5b50919050565b60008190508160005260206000209050919050565b60006020601f8301049050919050565b600082821b905092915050565b600060088302610c0b7fffffffffffffffffffffffffffffffffffffffffffffffffffffffffffffffff82610bce565b610c158683610bce565b95508019841693508086168417925050509392505050565b6000819050919050565b6000610c52610c4d610c48846105d9565b610c2d565b6105d9565b9050919050565b6000819050919050565b610c6c83610c37565b610c80610c7882610c59565b848454610bdb565b825550505050565b600090565b610c95610c88565b610ca0818484610c63565b505050565b5b81811015610cc457610cb9600082610c8d565b600181019050610ca6565b5050565b601f821115610d0957610cda81610ba9565b610ce384610bbe565b81016020851015610cf2578190505b610d06610cfe85610bbe565b830182610ca5565b50505b505050565b600082821c905092915050565b6000610d2c60001984600802610d0e565b1980831691505092915050565b6000610d458383610d1b565b9150826002028217905092915050565b610d5e826108a5565b67ffffffffffffffff811115610d7757610d7661063c565b5b610d818254610b78565b610d8c828285610cc8565b600060209050601f831160018114610dbf5760008415610dad578287015190505b610db78582610d39565b865550610e1f565b601f198416610dcd86610ba9565b60005b82811015610df557848901518255600182019150602085019450602081019050610dd0565b86831015610e125784890151610e0e601f891682610d1b565b8355505b6001600288020188555050505b505050505050565b6000610e32826108a5565b610e3c8185610a55565b9350610e4c8185602086016108c1565b610e558161062b565b840191505092915050565b60006060820190508181036000830152610e7a8186610e27565b90508181036020830152610e8e8185610e27565b9050610e9d60408301846105e3565b949350505050565b7f4e6f74206f776e65720000000000000000000000000000000000000000000000600082015250565b6000610edb600983610a55565b9150610ee682610ea5565b602082019050919050565b60006020820190508181036000830152610f0a81610ece565b9050919050565b7f4e6f6e2d6578697374656e742069640000000000000000000000000000000000600082015250565b6000610f47600f83610a55565b9150610f5282610f11565b602082019050919050565b60006020820190508181036000830152610f7681610f3a565b9050919050565b6000610f88826105d9565b9150610f93836105d9565b9250828201905080821115610fab57610faa610ad2565b5b92915050565b7f4e487b7100000000000000000000000000000000000000000000000000000000600052603260045260246000fdfea2646970667358221220ad57772911faa7bf8c51d8488055a03520f444c54782a105e0e9cd39da2d058a64736f6c63430008120033",
    "linkReferences": {},
    "deployedLinkReferences": {}
}